:100000000C942A000C9447000C9447000C94470071
:100010000C9447000C9447000C9447000C94470044
:100020000C9447000C9447000C9447000C94470034
:100030000C9447000C9447000C9447000C94470024
:100040000C9447000C9447000C9447000C94470014
:100050000C94470011241FBECFE5D8E0DEBFCDBF12
:1000600011E0A0E6B0E0ECE2FFE002C005900D92E6
:10007000A237B107D9F721E0A2E7B1E001C01D9294
:10008000A537B207E1F70E9448070C9494070C9437
:1000900000000F931F93CF93DF93CDB7DEB7609728
:1000A0000FB6F894DEBF0FBECDBF082F80E1E5E7A5
:1000B000F0E0DE01119601900D928A95E1F7602F34
:1000C00081E00E94D60681E40E9434061AE00E9474
:1000D0000E058437E1F3813491F41F3009F419E0FF
:1000E0001F5F602F81E00E94D606E1E0F0E0EC0F98
:1000F000FD1FE10FF11D80810E943406E8CF812FA2
:1001000060960FB6F894DEBF0FBECDBFDF91CF91E2
:100110001F910F91089580916400853539F40E94F4
:10012000E4060E941D078AEA809364000E94E406A8
:1001300061E081E00E94D6068DE890E00E94BA0658
:1001400061E082E00E94D6068DE990E00C94BA0648
:10015000FF920F931F93CF93DF9300D01F92CDB7E1
:10016000DEB7182F809162008535F1F40E94E40615
:1001700061E081E00E94D6068DEA90E00E94BA0616
:1001800061E082E00E94D606113319F486EB90E01C
:1001900004C0123321F48FEB90E00E94BA0600E015
:1001A00085E589831B821BC08A3AC9F769E081E033
:1001B0000E94D60688EC90E00E94BA0669E082E0D0
:1001C0000E94D60688EC90E00E94BA0685E58093EE
:1001D0006200E5CF9A81943759F4033029F10E94E7
:1001E0000E058A838336B1F70E948B0080E03AC007
:1001F0009D33D1F080EDF82EF90E89E08F1568F36C
:100200009981953531F469E081E00E94D6068AEA49
:1002100089838B819AE0899FF00C1124FB828A816B
:100220000E9434060F5FD9CF113341F469E082E0B8
:100230000E94D6068B810E94080709C0123339F448
:1002400069E082E00E94D6068B810E94EE060E9441
:100250000E05843429F48AEA8093620084E402C0A3
:100260008336A9F70F900F900F90DF91CF911F91D8
:100270000F91FF900895BF92CF92DF92EF92FF927D
:100280000F931F93CF93DF93CDB7DEB761970FB670
:10029000F894DEBF0FBECDBFD82E80E1E5E7F0E0D9
:1002A000DE01119601900D928A95E1F7809161002F
:1002B0008535E1F40E94E40661E081E00E94D60603
:1002C00086EB90E00E94BA0661E082E00E94D606CA
:1002D00081E3D81203C08DEA90E005C082E3D81212
:1002E0001AC083ED90E00E94BA0615C08A3A99F4CC
:1002F00069E081E00E94D60688EC90E00E94BA0690
:1003000069E082E00E94D60688EC90E00E94BA067E
:1003100085E580936100B12C00E0C12C85E5898BD7
:1003200082E0C81609F445C00E940E05F82E83E647
:10033000F81204C00E948B0080E06EC084E7F816BB
:1003400079F310E0E1E0F0E0EC0FFD1FE10FF11DAB
:10035000E080EF102AC089898535B1F469E081E039
:100360000E94D60681E4F8124EC089E00E9449003E
:10037000182FE1E0F0E0EC0FFD1FE80FF11DE08029
:10038000082F8AEA898B0FC081E4F81240C08AE006
:100390000E944900182FE1E0F0E0EC0FFD1FE80F8C
:1003A000F11DE080B82EC394FE2C1F5F1B3050F26D
:1003B000B7CF80E1089FB00111241B2D162B81E3DC
:1003C000D8120BC069E082E00E94D606612F70E06F
:1003D00080E090E00E9436060AC082E3D81207C08F
:1003E00069E082E00E94D606812F0E94EE060E94FC
:1003F0000E05843429F48AEA8093610084E40CC0F9
:100400008336A9F709C0012F8AEA898B01C0B12E72
:100410008F2D0E943406C7CF61960FB6F894DEBFC9
:100420000FBECDBFDF91CF911F910F91FF90EF9045
:10043000DF90CF90BF900895CF92DF92EF92FF921E
:100440000F931F93CF93DF93CDB7DEB729970FB6E6
:10045000F894DEBF0FBECDBF082F809160008535B8
:10046000F1F40E94E40661E081E00E94D6068FEB81
:1004700090E00E94BA0661E082E00E94D606013355
:1004800019F48DEA90E004C0023321F486EB90E089
:100490000E94BA06E12C85E5898710E016C08A3AE9
:1004A000C9F769E081E00E94D60688EC90E00E94DE
:1004B000BA0669E082E00E94D60688EC90E00E94CD
:1004C000BA0685E580936000E5CF0E940E05F82E00
:1004D00083E6F81204C00E948B0080E062C084E7CB
:1004E000F816B9F080EDD82EDF0C81E08D1588F07C
:1004F0008985853531F469E081E00E94D6068AEA73
:1005000089878F2D0E943406412F440F142F1D29F7
:10051000E39488E0E812D9CF412F50E060E070E02A
:10052000E5E8F0E0DE01119601900D928A95E1F781
:10053000FE01319680E090E010E06A017B01082E18
:1005400004C0F694E794D794C7940A94D2F7C0FEF7
:1005500002C02081120F019631968830910569F70B
:10056000013359F469E082E00E94D606612F70E001
:1005700080E090E00E94360609C0023339F469E059
:1005800082E00E94D606812F0E9408070E940E0575
:10059000843429F48AEA8093600084E402C08336BC
:1005A000A9F729960FB6F894DEBF0FBECDBFDF9135
:1005B000CF911F910F91FF90EF90DF90CF90089512
:1005C0000E940E0580937401843709F4A1C083361C
:1005D00049F4109273011092720185E580936300D3
:1005E0000E948B00809163008A3A09F04AC0809192
:1005F00074018153823008F044C00E94E406809167
:10060000740180937201809173010E94340680917D
:1006100072010E943406809173018233E1F08333CA
:1006200029F1813371F5809172010E94A8008093B5
:100630007401809174018434B1F3833611F40E9403
:100640008B00109273011092720185E58093630014
:100650001092740116C0809172010E943B01809338
:100660007401809174018434B1F3E7CF80917201F9
:100670000E941C0280937401809174018434B1F350
:10068000DCCF80916300853509F042C08091740110
:1006900081538330E8F50E94E406809174018093D1
:1006A0007301823399F0833301F1813371F561E095
:1006B00081E00E94D6068DED90E00E94BA0661E0CE
:1006C00082E00E94D6068AEE90E01DC061E081E0E3
:1006D0000E94D60689EF90E00E94BA0661E082E0AF
:1006E0000E94D60686E091E00EC061E081E00E94A3
:1006F000D60685E191E00E94BA0661E082E00E94A0
:10070000D60682E291E00E94BA068AEA80936300EC
:100710000895E1E3F1E040E081E090E05191342F71
:10072000369536953695242F2770513009F443C0FD
:1007300020F0523009F482C0C5C0323001F13330AC
:1007400061F1313071F05AB3BC0102C0660F771FFE
:100750002A95E2F79B01352F322B3ABB3BB320950C
:100760003DC057B3BC0102C0660F771F2A95E2F760
:100770009B01352F322B37BB38B320953EC054B385
:10078000BC0102C0660F771F2A95E2F79B01352F47
:10079000322B34BB35B320953FC051B3BC0102C0EE
:1007A000660F771F2A95E2F79B01352F322B31BB5D
:1007B00032B3209541C0323011F1333081F1313004
:1007C00079F05AB3BC0102C0660F771F2A95E2F791
:1007D0009B012095352F32233ABB3BB3232342C0E4
:1007E00057B3BC0102C0660F771F2A95E2F79B0141
:1007F0002095352F322337BB38B3232343C054B35E
:10080000BC0102C0660F771F2A95E2F79B01209575
:10081000352F322334BB35B3232325BB53C051B30B
:10082000BC0102C0660F771F2A95E2F79B01209555
:10083000352F322331BB32B3232343C0323021F171
:10084000333089F1313081F05AB3BC0102C0660FF8
:10085000771F2A95E2F79B01362F309535233ABB57
:100860003BB3232B2BBB2EC057B3BC0102C0660F7A
:10087000771F2A95E2F79B01362F3095352337BB3A
:1008800038B3232B28BB1EC054B3BC0102C0660F73
:10089000771F2A95E2F79B01362F3095352334BB1D
:1008A00035B3232BBACF51B3BC0102C0660F771FFB
:1008B0002A95E2F79B01362F3095352331BB32B3B1
:1008C000232B22BB4F5F403209F028CF0895982F89
:1008D00096959695969587706130C1F5913091F017
:1008E00028F09230D9F0933029F108954BB321E0EC
:1008F00030E0B90102C0660F771F8A95E2F7CB019D
:10090000842B38C048B321E030E0B90102C0660F43
:10091000771F8A95E2F7CB01842B3AC045B321E0DB
:1009200030E0B90102C0660F771F8A95E2F7CB016C
:10093000842B3CC042B321E030E0B90102C0660F15
:10094000771F8A95E2F7CB01842B3EC09130A1F04E
:1009500028F09230F9F0933059F108954BB321E02B
:1009600030E0B90102C0660F771F8A95E2F7CB012C
:10097000809584238BBB089548B321E030E0B90112
:1009800002C0660F771F8A95E2F7CB01809584231A
:1009900088BB089545B321E030E0B90102C0660F7D
:1009A000771F8A95E2F7CB018095842385BB089554
:1009B00042B321E030E0B90102C0660F771F8A958B
:1009C000E2F7CB018095842382BB0895282F2770FE
:1009D000869586958695813049F030F0823041F0D9
:1009E000833079F480B305C089B303C086B301C0F6
:1009F00083B390E002C0959587952A95E2F78170C0
:100A0000089580E00895CF93CCE061E08C2F0E94A0
:100A10006704CF5FC031C9F7CF910895DF92EF929D
:100A2000FF920F931F93CF93DF9395E6E92E90E00B
:100A3000F92ECCE0D4E760E08C2F0E94670400E040
:100A400010E08AE1D82ED00E8D2D0E94E60481118F
:100A500015C0F701E00FF11FD0818FE19EE40197EF
:100A6000F1F700C000008D2D0E94E6048823D9F321
:100A70008FE19EE40197F1F700C000000F5F1F4F68
:100A800004301105F1F661E08C2F0E946704CF5FFE
:100A900094E0E90EF11CC03171F68D2FDF91CF91FA
:100AA0001F910F91FF90EF90DF900895CF93C82F83
:100AB00060E081E00E9467046C2F661F6627661F56
:100AC00086E00E946704C6FB662760F985E00E9405
:100AD0006704C5FB662760F984E00E946704C4FBD5
:100AE000662760F983E00E94670461E082E00E946B
:100AF00067048FEC97E00197F1F700C0000060E019
:100B000082E00E9467048FEC97E00197F1F700C044
:100B10000000C3FB662760F986E00E946704C2FB01
:100B2000662760F985E00E946704C1FB662760F9CB
:100B300084E00E9467046C2F617083E00E94670468
:100B400061E082E00E9467048FEC97E00197F1F783
:100B500000C0000060E082E00E9467048FEC97E034
:100B60000197F1F700C00000CF910895CF93C82FEF
:100B700061E081E00E9467046C2F661F6627661F94
:100B800086E00E946704C6FB662760F985E00E9444
:100B90006704C5FB662760F984E00E946704C4FB14
:100BA000662760F983E00E94670461E082E00E94AA
:100BB00067048FEC97E00197F1F700C0000060E058
:100BC00082E00E9467048FEC97E00197F1F700C084
:100BD0000000C3FB662760F986E00E946704C2FB41
:100BE000662760F985E00E946704C1FB662760F90B
:100BF00084E00E9467046C2F617083E00E946704A8
:100C000061E082E00E9467048FEC97E00197F1F7C2
:100C100000C0000060E082E00E9467048FEC97E073
:100C20000197F1F700C00000CF9108952FE788E306
:100C300091E0215080409040E1F700C0000082E048
:100C40000E94560588E20E9456058CE00E945605D7
:100C500081E00E9456058FEC97E00197F1F700C004
:100C6000000086E00C9456050C94B6054F925F92F6
:100C70006F927F92AF92BF92CF92DF92EF92FF92EC
:100C80001F93CF93DF93CDB7DEB72A970FB6F894B3
:100C9000DEBF0FBECDBF6B017C0161157105810503
:100CA0009105B1F480E32A960FB6F894DEBF0FBE2B
:100CB000CDBFDF91CF911F91FF90EF90DF90CF904C
:100CC000BF90AF907F906F905F904F900C94B6055F
:100CD00097FF0BC0F094E094D094C094C11CD11C39
:100CE000E11CF11C8DE20E94B60510E09AE0492E4D
:100CF000512C612C712CAA24A394B12CAC0EBD1ED6
:100D0000A10EB11CC701B601A30192010E945307B5
:100D1000605DF501608381E0810F69017A01C11492
:100D2000D104E104F10411F0182FE5CFF12EF7FC06
:100D30000DC0E1E0F0E0EC0FFD1FEF0DF11DF7FC41
:100D4000FA9580810E94B605FA94F1CF2A960FB6E3
:100D5000F894DEBF0FBECDBFDF91CF911F91FF9002
:100D6000EF90DF90CF90BF90AF907F906F905F90AB
:100D70004F9008950F931F93CF938C01C0E0F8011B
:100D8000EC0FF11D8081882369F00E94B6052FEFDA
:100D900089EF90E0215080409040E1F700C00000D2
:100DA000CF5FEDCFCF911F910F910895813021F446
:100DB0008FEF860F806805C0823029F48FEF860F91
:100DC000806C0C945605089581E00E9456058FECC6
:100DD00097E00197F1F700C0000008950F931F936B
:100DE000CF93DF93C7E0D0E0082F10E0C8010C2EAE
:100DF00002C0959587950A94E2F78170805D0E9404
:100E0000B605219798F7DF91CF911F910F91089523
:100E1000CF93C82F82958F70CF708A3010F4805D89
:100E200001C0895C0E94B605CA3010F480E301C09D
:100E300087E38C0FCF910C94B60584E80E94560589
:100E400087E591E00E94BA0681EC0E9456058FE585
:100E500091E00E94BA062FEF89E698E12150804088
:100E60009040E1F700C000000E94E40685E80E947F
:100E700056058CE691E00E94BA062FEF81EE94E0D1
:100E8000215080409040E1F700C000000C94E4063F
:100E90000E9489030E9416060E9403050E948B008F
:100EA0000E94E002FDCF052E97FB1EF400940E94E5
:100EB0006A0757FD07D00E94720707FC03D04EF463
:100EC0000C946A0750954095309521953F4F4F4FB0
:100ED0005F4F089590958095709561957F4F8F4FE6
:100EE0009F4F0895A1E21A2EAA1BBB1BFD010DC046
:100EF000AA1FBB1FEE1FFF1FA217B307E407F507CA
:100F000020F0A21BB30BE40BF50B661F771F881FA5
:100F1000991F1A9469F760957095809590959B013B
:0C0F2000AC01BD01CF010895F894FFCF93
:100F2C0055555555553738394134353642313233AC
:100F3C004363303D44303132333435363738394100
:100F4C0042434445460102040810204080436F6E22
:100F5C00766572742046726F6D203A2000312D44F4
:100F6C00202020322D48202020332D4200444543A0
:100F7C00494D414C3A00484558204445433A0042BB
:100F8C00494E415259203A00202020202020202078
:100F9C0020200042494E415259203A200046726F9F
:100FAC006D204420544F202D2D00312D48455820C4
:100FBC00202020322D42494E0046726F6D20482071
:100FCC00544F202D2D00312D44454320202020321C
:100FDC002D42494E0046726F6D204220544F202DF9
:100FEC002D00312D44454320202020322D484558DA
:100FFC0000000000000000000000000000000000E5
:10100C0000000000000000000000000202020200CC
:10101C00006B6172696D0057454C434F4D45005450
:10102C004F20434F4E564552544552005354415253
:02103C0054005E
:00000001FF
